{
  "contractName": "EtherWallet",
  "abi": [
    {
      "inputs": [
        {
          "internalType": "address payable",
          "name": "_owner",
          "type": "address"
        }
      ],
      "stateMutability": "nonpayable",
      "type": "constructor"
    },
    {
      "inputs": [],
      "name": "owner",
      "outputs": [
        {
          "internalType": "address",
          "name": "",
          "type": "address"
        }
      ],
      "stateMutability": "view",
      "type": "function",
      "constant": true
    },
    {
      "inputs": [],
      "name": "deposit",
      "outputs": [],
      "stateMutability": "payable",
      "type": "function",
      "payable": true
    },
    {
      "inputs": [
        {
          "internalType": "address payable",
          "name": "to",
          "type": "address"
        },
        {
          "internalType": "uint256",
          "name": "amount",
          "type": "uint256"
        }
      ],
      "name": "send",
      "outputs": [],
      "stateMutability": "nonpayable",
      "type": "function"
    },
    {
      "inputs": [],
      "name": "balanceOf",
      "outputs": [
        {
          "internalType": "uint256",
          "name": "",
          "type": "uint256"
        }
      ],
      "stateMutability": "view",
      "type": "function",
      "constant": true
    }
  ],
  "bytecode": "0x608060405234801561000f575f80fd5b506040516104b83803806104b8833981810160405281019061003191906100d4565b805f806101000a81548173ffffffffffffffffffffffffffffffffffffffff021916908373ffffffffffffffffffffffffffffffffffffffff160217905550506100ff565b5f80fd5b5f73ffffffffffffffffffffffffffffffffffffffff82169050919050565b5f6100a38261007a565b9050919050565b6100b381610099565b81146100bd575f80fd5b50565b5f815190506100ce816100aa565b92915050565b5f602082840312156100e9576100e8610076565b5b5f6100f6848285016100c0565b91505092915050565b6103ac8061010c5f395ff3fe60806040526004361061003e575f3560e01c8063722713f7146100425780638da5cb5b1461006c578063d0679d3414610096578063d0e30db0146100be575b5f80fd5b34801561004d575f80fd5b506100566100c8565b60405161006391906101e6565b60405180910390f35b348015610077575f80fd5b506100806100cf565b60405161008d919061023e565b60405180910390f35b3480156100a1575f80fd5b506100bc60048036038101906100b791906102c0565b6100f2565b005b6100c66101cc565b005b5f47905090565b5f8054906101000a900473ffffffffffffffffffffffffffffffffffffffff1681565b5f8054906101000a900473ffffffffffffffffffffffffffffffffffffffff1673ffffffffffffffffffffffffffffffffffffffff163373ffffffffffffffffffffffffffffffffffffffff160361018d578173ffffffffffffffffffffffffffffffffffffffff166108fc8290811502906040515f60405180830381858888f19350505050158015610187573d5f803e3d5ffd5b506101c8565b6040517f08c379a00000000000000000000000000000000000000000000000000000000081526004016101bf90610358565b60405180910390fd5b5050565b565b5f819050919050565b6101e0816101ce565b82525050565b5f6020820190506101f95f8301846101d7565b92915050565b5f73ffffffffffffffffffffffffffffffffffffffff82169050919050565b5f610228826101ff565b9050919050565b6102388161021e565b82525050565b5f6020820190506102515f83018461022f565b92915050565b5f80fd5b5f610265826101ff565b9050919050565b6102758161025b565b811461027f575f80fd5b50565b5f813590506102908161026c565b92915050565b61029f816101ce565b81146102a9575f80fd5b50565b5f813590506102ba81610296565b92915050565b5f80604083850312156102d6576102d5610257565b5b5f6102e385828601610282565b92505060206102f4858286016102ac565b9150509250929050565b5f82825260208201905092915050565b7f53656e646572206973206e6f7420616c6c6f77656400000000000000000000005f82015250565b5f6103426015836102fe565b915061034d8261030e565b602082019050919050565b5f6020820190508181035f83015261036f81610336565b905091905056fea2646970667358221220c134b4f4709da6f3d0961400a352adb76291e232e5eda910df6036dbc424d4d264736f6c63430008150033",
  "immutableReferences": {},
  "source": "// SPDX-License-Identifier: MIT\r\npragma solidity ^0.8.0;\r\n\r\ncontract EtherWallet{\r\n\r\n    address public owner;\r\n\r\n    constructor(address payable  _owner){\r\n        owner= _owner;\r\n    }\r\n\r\n    function deposit() payable public{\r\n    }\r\n\r\n    function send(address payable to,uint amount)public {\r\n        if(msg.sender==owner){\r\n        to.transfer(amount);\r\n        return;\r\n        }\r\n        revert('Sender is not allowed');\r\n    }\r\n\r\n    function balanceOf()view public returns(uint){\r\n        return address(this).balance;\r\n    }\r\n}",
  "sourcePath": "C:\\Users\\fahad zulfiqar\\OneDrive\\Desktop\\web3\\Ecrow(Smart-Contract)\\contracts\\EtherWallet.sol",
  "compiler": {
    "name": "solc",
    "version": "0.8.21+commit.d9974bed.Emscripten.clang"
  },
  "schemaVersion": "3.4.16",
  "updatedAt": "2024-06-13T18:10:00.382Z",
  "networkType": "ethereum",
  "devdoc": {
    "kind": "dev",
    "methods": {},
    "version": 1
  },
  "userdoc": {
    "kind": "user",
    "methods": {},
    "version": 1
  }
}